{
  "contractName": "swap",
  "abi": [
    {
      "inputs": [],
      "name": "tooswap",
      "outputs": [],
      "stateMutability": "nonpayable",
      "type": "function"
    }
  ],
  "bytecode": "0x608060405234801561001057600080fd5b50610a94806100206000396000f3fe608060405234801561001057600080fd5b506004361061002b5760003560e01c80631aedaca714610030575b600080fd5b61003861003a565b005b6000735592ec0cfb4dbc12d3ab100b257153436a1f0fea90506000670de0b6b3a764000090508173ffffffffffffffffffffffffffffffffffffffff166323b872dd3330846040518463ffffffff1660e01b815260040161009d9392919061076a565b602060405180830381600087803b1580156100b757600080fd5b505af11580156100cb573d6000803e3d6000fd5b505050506040513d601f19601f820116820180604052508101906100ef919061060f565b61012e576040517f08c379a0000000000000000000000000000000000000000000000000000000008152600401610125906107ea565b60405180910390fd5b8173ffffffffffffffffffffffffffffffffffffffff1663095ea7b3737a250d5630b4cf539739df2c5dacb4c659f2488d836040518363ffffffff1660e01b815260040161017d9291906107a1565b602060405180830381600087803b15801561019757600080fd5b505af11580156101ab573d6000803e3d6000fd5b505050506040513d601f19601f820116820180604052508101906101cf919061060f565b61020e576040517f08c379a0000000000000000000000000000000000000000000000000000000008152600401610205906107ca565b60405180910390fd5b6000600267ffffffffffffffff811115610251577f4e487b7100000000000000000000000000000000000000000000000000000000600052604160045260246000fd5b60405190808252806020026020018201604052801561027f5781602001602082028036833780820191505090505b509050735592ec0cfb4dbc12d3ab100b257153436a1f0fea816000815181106102d1577f4e487b7100000000000000000000000000000000000000000000000000000000600052603260045260246000fd5b602002602001019073ffffffffffffffffffffffffffffffffffffffff16908173ffffffffffffffffffffffffffffffffffffffff1681525050737a250d5630b4cf539739df2c5dacb4c659f2488d73ffffffffffffffffffffffffffffffffffffffff1663ad5c46486040518163ffffffff1660e01b815260040160206040518083038186803b15801561036557600080fd5b505afa158015610379573d6000803e3d6000fd5b505050506040513d601f19601f8201168201806040525081019061039d91906105a5565b816001815181106103d7577f4e487b7100000000000000000000000000000000000000000000000000000000600052603260045260246000fd5b602002602001019073ffffffffffffffffffffffffffffffffffffffff16908173ffffffffffffffffffffffffffffffffffffffff1681525050737a250d5630b4cf539739df2c5dacb4c659f2488d73ffffffffffffffffffffffffffffffffffffffff166318cbafe5836000843360c842610453919061090b565b6040518663ffffffff1660e01b815260040161047395949392919061080a565b600060405180830381600087803b15801561048d57600080fd5b505af11580156104a1573d6000803e3d6000fd5b505050506040513d6000823e3d601f19601f820116820180604052508101906104ca91906105ce565b50505050565b60006104e36104de84610895565b610864565b9050808382526020820190508285602086028201111561050257600080fd5b60005b8581101561053257816105188882610590565b845260208401935060208301925050600181019050610505565b5050509392505050565b60008151905061054b81610a19565b92915050565b600082601f83011261056257600080fd5b81516105728482602086016104d0565b91505092915050565b60008151905061058a81610a30565b92915050565b60008151905061059f81610a47565b92915050565b6000602082840312156105b757600080fd5b60006105c58482850161053c565b91505092915050565b6000602082840312156105e057600080fd5b600082015167ffffffffffffffff8111156105fa57600080fd5b61060684828501610551565b91505092915050565b60006020828403121561062157600080fd5b600061062f8482850161057b565b91505092915050565b60006106448383610650565b60208301905092915050565b61065981610961565b82525050565b61066881610961565b82525050565b6000610679826108d1565b61068381856108e9565b935061068e836108c1565b8060005b838110156106bf5781516106a68882610638565b97506106b1836108dc565b925050600181019050610692565b5085935050505092915050565b6106d5816109a9565b82525050565b60006106e8600d836108fa565b91507f4661696c20617070726f76616c000000000000000000000000000000000000006000830152602082019050919050565b6000610728600f836108fa565b91507f4661696c6564207472616e7366657200000000000000000000000000000000006000830152602082019050919050565b6107648161099f565b82525050565b600060608201905061077f600083018661065f565b61078c602083018561065f565b610799604083018461075b565b949350505050565b60006040820190506107b6600083018561065f565b6107c3602083018461075b565b9392505050565b600060208201905081810360008301526107e3816106db565b9050919050565b600060208201905081810360008301526108038161071b565b9050919050565b600060a08201905061081f600083018861075b565b61082c60208301876106cc565b818103604083015261083e818661066e565b905061084d606083018561065f565b61085a608083018461075b565b9695505050505050565b6000604051905081810181811067ffffffffffffffff8211171561088b5761088a6109ea565b5b8060405250919050565b600067ffffffffffffffff8211156108b0576108af6109ea565b5b602082029050602081019050919050565b6000819050602082019050919050565b600081519050919050565b6000602082019050919050565b600082825260208201905092915050565b600082825260208201905092915050565b60006109168261099f565b91506109218361099f565b9250827fffffffffffffffffffffffffffffffffffffffffffffffffffffffffffffffff03821115610956576109556109bb565b5b828201905092915050565b600061096c8261097f565b9050919050565b60008115159050919050565b600073ffffffffffffffffffffffffffffffffffffffff82169050919050565b6000819050919050565b60006109b48261099f565b9050919050565b7f4e487b7100000000000000000000000000000000000000000000000000000000600052601160045260246000fd5b7f4e487b7100000000000000000000000000000000000000000000000000000000600052604160045260246000fd5b610a2281610961565b8114610a2d57600080fd5b50565b610a3981610973565b8114610a4457600080fd5b50565b610a508161099f565b8114610a5b57600080fd5b5056fea26469706673582212204bc8960bed34c476af10d9fbc13f280d2bfd7e84bbce5e35dc9a18e5c5fcb9fd64736f6c63430008000033",
  "immutableReferences": {},
  "source": "pragma solidity 0.8.0;\r\n\r\n\r\n\r\n\r\n\r\n\r\ncontract swap {\r\n     address private constant UNISWAP_V2_ROUTER = 0x7a250d5630B4cF539739dF2C5dAcb4c659F2488D;\r\n     address private constant WETH = 0xC02aaA39b223FE8D0A0e5C4F27eAD9083C756Cc2;\r\n    \r\n     function tooswap()external  {\r\n              address tokenin=0x5592EC0cfb4dbc12D3aB100b257153436a1f0FEa;\r\n              uint256 num1=1*10**18;\r\n              //IERC20(tokenin).approve(address(this),num1);\r\n              require(IERC20(tokenin).transferFrom(msg.sender,address(this),num1),\"Failed transfer\");\r\n              require(IERC20(tokenin).approve(UNISWAP_V2_ROUTER,num1),\"Fail approval\");\r\n              \r\n              \r\n              address[] memory path = new address[](2);\r\n              path[0]=0x5592EC0cfb4dbc12D3aB100b257153436a1f0FEa;\r\n              path[1]=IUniswapV2Router(UNISWAP_V2_ROUTER).WETH();\r\n              \r\n              IUniswapV2Router(UNISWAP_V2_ROUTER).swapExactTokensForETH(num1,0,path,msg.sender,block.timestamp+200);\r\n              \r\n              \r\n     }\r\n    \r\n}\r\n\r\ninterface IERC20 {\r\n    function totalSupply() external view returns (uint);\r\n    function balanceOf(address account) external view returns (uint);\r\n    function transfer(address recipient, uint amount) external returns (bool);\r\n    function allowance(address owner, address spender) external view returns (uint);\r\n    function approve(address spender, uint amount) external returns (bool);\r\n    function transferFrom(\r\n        address sender,\r\n        address recipient,\r\n        uint amount\r\n    ) external returns (bool);\r\n    event Transfer(address indexed from, address indexed to, uint value);\r\n    event Approval(address indexed owner, address indexed spender, uint value);\r\n}\r\n\r\n\r\ninterface IUniswapV2Router {\r\n  \r\n\r\n  function swapExactTokensForETH(uint amountIn, uint amountOutMin, address[] calldata path, address to, uint deadline)\r\n        external\r\n        returns (uint[] memory amounts);\r\n  function WETH() external pure returns (address);\r\n\r\n}\r\n\r\n\r\n\r\n\r\n",
  "sourcePath": "C:/Users/DEvanshu/Desktop/uniswap/contracts/swap.sol",
  "compiler": {
    "name": "solc",
    "version": "0.8.0+commit.c7dfd78e.Emscripten.clang"
  },
  "schemaVersion": "3.4.1",
  "updatedAt": "2021-08-01T06:21:22.384Z",
  "networkType": "ethereum",
  "devdoc": {
    "kind": "dev",
    "methods": {},
    "version": 1
  },
  "userdoc": {
    "kind": "user",
    "methods": {},
    "version": 1
  }
}